:020000040000FA
:1000000000008A110A12B92D83120313B601B70139
:100010000230B80083160313850183120313850190
:100020007930831603138600831203138601883008
:10003000831603138700543083120313870083163B
:10004000031788018901831203139F018316031389
:100050009F0103308E0083120317870188018901F5
:1000600083120313940183160313910197018316DE
:10007000031785018730831603138100831203134E
:100080008B01831603138C018D01831203138D01E1
:1000900083160313900170308F00831603130F082B
:1000A00083120313B900391D4D288A150A12112134
:1000B0008A110A12831203138C120C128312031377
:1000C000B9012030831203133902031870288A15EE
:1000D0000A12AD218A110A1283120313B90A612888
:1000E000F930831603138600EA3083120313850068
:1000F00083120313861D82288A150A12AD218A11E4
:100100000A12782883120313B901203083120313D3
:100110003902031894288A150A12AD218A110A128D
:1001200083120313B90A852883120313061E9A2823
:10013000861A9F288A150A12AD218A110A128A1579
:100140000A12F6208A110A122E308A150A127C2110
:100150008A110A1283120313B90183120313390897
:10016000B93EBA0003300318013EBB003A08FE0056
:100170003B08FF0080308A110A12E8278A110A1210
:1001800083120313BC000030FD00FE30FE0039086E
:10019000FF003C088A110A1274278A110A1283127E
:1001A00003133908BA003A0AB9003908031DAD280B
:1001B0008A150A12F6208A110A122E308A150A129E
:1001C0007C218A110A12831203133908B93EBA003E
:1001D00004300318013EBB003A08FE003B08FF0054
:1001E00080308A110A12E8278A110A128312031337
:1001F000BC000030FD00FF30FE003908FF003C0865
:100200008A110A1274278A110A12831203133908F9
:10021000BA003A0AB9003908031DE3288A150A1200
:10022000F6208A110A123F308A150A127C218A119F
:100230000A1283120313CF0183120313D001831216
:100240000313D10183120313CE0183120313CD01D3
:1002500083120313B901BA010230BB00BC01BD0116
:10026000831203133C08013A031D45293D08031D71
:1002700045290130BD00BC013608B9003708BA0075
:100280003808BB0083120313D1018A150A127220A9
:100290008A110A12831203135108FE0083120313FA
:1002A0005008FF00831203134F088A150A12B82062
:1002B0008A110A12831203134D0803191C2A831290
:1002C00003133908B6003A08B7003B08B800BE016E
:1002D000BF010230831203133F02031D7129003056
:1002E0003E020318A5298A150A1200208A110A1253
:1002F00083120313CE00831203133B08FD003A0858
:10030000FE003908FF00831203134E088A110A12F7
:1003100074278A110A12831203133908C000400A95
:10032000B9003908031D9F293A08C000400ABA00E5
:100330003A08031D9F293B08C000400ABB008312F6
:100340000313BE0A0319BF0A69298A150A12F62087
:100350008A110A128A150A126B218A110A12831253
:100360000313BE003E080319142A83120313510815
:1003700083120313BE0002303E0783120313D10021
:100380005108031DDA298312031350088312031343
:10039000BE003E0A83120313D0005008031DDA2961
:1003A000831203134F0883120313BE003E0A831205
:1003B0000313CF00831203133C08BE003E0ABC00A7
:1003C0003C08031D1C2A0030FD00FE30FE000030FA
:1003D000FF005C308A110A1274278A110A12003059
:1003E000FD00FE30FE000130FF0000308A110A12CD
:1003F00074278A110A120030FD00FE30FE00023020
:10040000FF00E0308A110A1274278A110A120030A4
:10041000FD00FE30FE000330FF0003308A110A1297
:1004200074278A110A121C2A831203133608B90092
:100430003708BA003808BB00831203133C08031DB9
:10044000302983120313871686137B308316031318
:10045000860083120313B601203083120313360281
:1004600003183B2A8A150A12AD218A110A12831237
:100470000313B60A2C2AF930831603138600FB30C7
:1004800086008312031306152A308A150A127C216E
:100490008A110A124A2A08008316031307088312D6
:1004A0000313AD00F030AD0508302D04831603139F
:1004B0008700831203130715871407108A150A1281
:1004C000B2218A110A128A150A12DA208A110A1236
:1004D0008A150A1243218A110A128A150A12B621B4
:1004E0008A110A1240308A150A1226208A110A122D
:1004F00000308A150A1226208A110A1200308A1545
:100500000A1226208A110A1200308A150A122620A1
:100510008A110A1200308A150A1226208A110A123C
:1005200095308A150A1226208A110A128A150A1293
:1005300095208A110A1283120313AD00FF3A031D9E
:10054000A32A0030B82B8A150A12B2218A110A1286
:10055000831203132D08013A0319B02A0030B82B77
:100560008A150A1243218A110A128A150A12DA2000
:100570008A110A128A150A12B6218A110A12483003
:100580008A150A1226208A110A1200308A150A12C8
:1005900026208A110A1200308A150A1226208A1192
:1005A0000A1201308A150A1226208A110A12AA306C
:1005B0008A150A1226208A110A1287308A150A1211
:1005C00026208A110A128A150A1295208A110A1207
:1005D00083120313AD00FF3A031DF02A0030B82B3D
:1005E000831203132D08013A0319F82A0030B82B9F
:1005F0008A150A1200208A110A128A150A1200208E
:100600008A110A128A150A1200208A110A128A1502
:100610000A1200208A110A128A150A12B2218A11BE
:100620000A128A150A12DA208A110A128A150A1287
:1006300043218A110A128A150A12B6218A110A1256
:1006400077308A150A1226208A110A1200308A157C
:100650000A1226208A110A1200308A150A12262050
:100660008A110A1200308A150A1226208A110A12EB
:1006700000308A150A1226208A110A1201308A15C2
:100680000A1226208A110A128A150A1295208A1146
:100690000A1283120313AD00FF3A031D512B0030E1
:1006A000B82B8A150A12B2218A110A128312031377
:1006B0002D08013A031DB72B8A150A12DA208A1178
:1006C0000A128A150A1243218A110A128A150A127D
:1006D000B6218A110A1269308A150A1226208A1157
:1006E0000A1240308A150A1226208A110A12003096
:1006F0008A150A1226208A110A1200308A150A1257
:1007000026208A110A1200308A150A1226208A1120
:100710000A1201308A150A1226208A110A128A1535
:100720000A1295208A110A1283120313AD00FF3AB0
:10073000031D9C2B0030B82B8A150A12B2218A1196
:100740000A12831203132D080319AC2B2D08013A4A
:100750000319AC2B0030B82B8A150A1243218A11D9
:100760000A12831203132D08013A0319112B0130C9
:100770000800EA34EA34EA34EA34EA34EA34EA349F
:10078000EA34EA34803401344034A93400348F34FC
:100790000234003401348F340B34003401348F348C
:1007A0000C3400340134A93482348F340E340034D4
:1007B00001345834A934003420344834FF34EE3442
:1007C0004934FF34D034F834AE344B34FF34E034A1
:1007D0000334D0340C34AE344A34FF34E034E034E3
:1007E000D0340534CE344B34FF3480340A34EE3404
:1007F0004A34FF34D034E034EE344B34FF348034A8
:10080000DB342034B734FE34AE34DD34FF34EC3422
:10081000DC34FF34F034F834EE34DD34FF34AD34FE
:10082000E534FE349C34E534FE34D034ED34BD344C
:100830000034FD34C934F034D0340534EE34E534BA
:10084000FE348034E134C9342934D0340534EE34F4
:10085000E334FE348034D534C9345A34D0340B34C4
:10086000AD34E334FE341834693410348D34E33459
:10087000FE348034C634C9346634D0340534CE34C2
:10088000E334FE348034BD34C9347634F0341D345E
:10089000A2340F34DD348D34FF34F0340334CA34E1
:1008A000D034F834DA342034E234FE34B534003451
:1008B0000A340A340A340A3495340034683415345E
:1008C00000349534003480349C34AD34E334FE3449
:1008D0008D34B334FE342034003400348034913409
:1008E000A0340034A2340034A5340034DA349C340B
:1008F0004534FF342034E234FE34EC34BC34FE346E
:10090000D0340334CE344534FF34FA342034E63462
:10091000FE34EE34BC34FE348A3429340F34D034FF
:10092000E334A2340034C834C834AD34BC34FE34AB
:10093000D034DA346034A2340034603400344834C3
:1009400048342934F03418346A346A346A346A34E6
:100950002034FD34FE34E834683429340F34203434
:10096000FD34FE34E834E834683460344834DA3432
:100970005A3448348A340A348D344934FF34983434
:100980000A340A340A348D344A34FF3468340A3461
:100990000A34AA34A0340434BD344D34FF34203436
:1009A0002A34FF3420343334FF3420342A34FF34E3
:1009B00020343334FF34E8348834D034ED347A349E
:1009C000FA3468346034483420344434FF34EE342C
:1009D0004934FF3480340D34483420344434FF34F7
:1009E000CE344934FF34EE344A34FF34EE344A34E2
:1009F000FF3468340A340A3460344934003429340A
:100A0000C0348F340034003402346034EA34AA3401
:100A1000E03400342234223420340034E234E83428
:100A2000E0340034E234E234E0340034AA34E23416
:100A300020340034E834E234E0340034E834EA347A
:100A4000E0340034E234223420340034EA34EA342E
:100A5000E0340034EA34E234E0340034EA34EA3496
:100A6000A03400348834EA34E0340034E834883484
:100A7000E03400342234EA34E0340034E834E8343A
:100A8000E0340034E834E83480340034453416343B
:100A90001E34263425342E3436343D343E34463428
:100AA0001C3432342134233424342B344834A934D4
:100AB0007F348F340D340034013418346E34DE3416
:100AC000FF34AF34003400340134293420340A3484
:100AD0000A3418346D34DE34FF348D34DE34FF34A0
:100AE000EE34DF34FF34AD34DF34FF34C93409343D
:100AF000D0341034DA34AE34DC34FF34AD34DE3488
:100B0000FF349D340034FD34EE34DC34FF34FA34E9
:100B100068344034C9340B34F0340234683440341F
:100B20009C34DF34FF346834403400340034003403
:100B3000003400340034003400340B34FE340B3401
:100B4000FE340B34FE340B34FE34003400349D3458
:100B5000FF3400340034003400340B34FE340034ED
:100B600000340B34FE340B34FE340034FE349D3438
:100B7000FF344C30FE000830FF0080308A110A122A
:100B8000C7278A110A1283120313C2007F08C1000B
:100B90004E30C3000830C400831203134108C5005F
:100BA0004208C600FF30C107031CC20346084504C3
:100BB0000319512E04304307C500C601C60D440871
:100BC000C6074508FE004608FF0080308A110A1259
:100BD000C7278A110A1283120313C8007F08C700AF
:100BE0004308FE004408FF0080308A110A12C7271C
:100BF0008A110A1283120313CA00C6007F08C500B7
:100C0000C90002304307C500C601C60D4408C60727
:100C10004508FE004608FF0080308A110A12C727E7
:100C20008A110A1283120313C600CC007F08CB007E
:100C3000C500831203134708CB004808CC00FF30DF
:100C4000C707031CC8034C084B0403194A2E490864
:100C5000FE004A08FF0080308A110A12E8278A1134
:100C60000A1283120313CB00450883120313840076
:100C7000831383120313461883174B08831203133D
:100C8000800083120313C90A0319CA0AC50A03198B
:100C9000C60A192E063083120313C3070318C40AA9
:100CA000CC2D8A110A120428080083120313AD0008
:100CB0007F08AE007E08AF008A150A12B2218A11A1
:100CC0000A128A150A12B6218A110A1251308A159F
:100CD0000A1226208A110A12831203132D088A157C
:100CE0000A1226208A110A12831203132E088A156B
:100CF0000A1226208A110A12831203132F102F08BA
:100D00008A150A1226208A110A1200308A150A1240
:100D100026208A110A1201308A150A1226208A1109
:100D20000A128A150A1295208A110A1283120313D5
:100D3000AD00FF3A031D9E2E0030BB2E831203131D
:100D40002D080319A52E0030BB2E8A150A129520F6
:100D50008A110A1283120313AD00FF3A031DB22E4B
:100D60000030BB2E831203132D08FE3A0319BA2E4E
:100D70000030BB2E0130080083120313A400A5002D
:100D8000A601F0302505A700A8010030803E803E76
:100D9000031DCC2E91302702031CDE2E8312031379
:100DA000240E0F39A700A80037302807A700A80095
:100DB0008A150A127C218A110A12ED2E831203135E
:100DC000240E0F39A700A80030302807A700A8007C
:100DD0008A150A127C218A110A120F30831203131A
:100DE000A505A6010030803E803E031DF92E0A3085
:100DF0002502031C0B2F831203132408A5000F30B8
:100E0000A5053730A5072508A6008A150A127C21FA
:100E10008A110A121B2F831203132408A5000F3016
:100E20002505A4003030A4072408A5008A150A125D
:100E30007C218A110A12080083120313B0007F0874
:100E4000B1007E08B2008A150A12B2218A110A1274
:100E50008A150A12B6218A110A1258308A150A1206
:100E600026208A110A128312031330088A150A12E7
:100E700026208A110A128312031331088A150A12D6
:100E800026208A110A1283120313321032088A159F
:100E90000A1226208A110A1200308A150A12262008
:100EA0008A110A1201308A150A1226208A110A12A2
:100EB0008A150A1295208A110A1283120313B000B0
:100EC000FF3A031D652F0030732F83120313300880
:100ED00003196C2F0030732FFE308A150A1226205A
:100EE0008A110A120130080083120313A2007F083E
:100EF000A3007E08A9007D08AA00A930831203136D
:100F000085008A150A12AD218A110A128312031371
:100F100022088312031385008A150A12AD218A1153
:100F20000A128F308312031385008A150A12AD212D
:100F30008A110A12831203132308831203138500F4
:100F40008A150A12AD218A110A1283120313290885
:100F50008312031385008A150A12AD218A110A1221
:100F6000831203132A088312031385008A150A12B9
:100F7000AD218A110A128312031387168A150A12E9
:100F8000AD218A110A128312031387120800003A56
:100F90000319CF2F803A0319D92FFF0100347E089F
:100FA000840083137F1883170008FF00840A000859
:100FB00008008A110A12F627FD00FE0FFF03FF0A40
:100FC0008A110A12F627FC007D08FF007C08080041
:100FD000003A0319EF2F803A0319F62F00347E08E8
:100FE000840083137F188317000808007F088A0095
:100FF0007E088200080083120313071407100800FC
:1010000083120313A201A3010830831203132302E6
:10101000031822282208A9000310290DA200831218
:101020000313871D1928831203132208A900290A14
:10103000A2008A110A12FB278A150A1283120313CF
:10104000A30A04288312031322080800831203133F
:10105000A200A301083083120313230203184B28B4
:1010600080302202031C38288312031387143B2884
:10107000831203138710831203132208A90003109D
:10108000290DA2008A110A12FB278A150A1283125F
:101090000313A30A2A28080006340034BA3409349A
:1010A0004D34003401340034BB3409344E34003440
:1010B00001340034BC3409344F340034013400347A
:1010C000BD3409345034003401340034BE340934A2
:1010D0005134003401340034BF3409345234003404
:1010E00001340034831203134D08031D9428831226
:1010F0000313AE010530831203132E020318942844
:101100008A110A124C228A150A1283120313AF00A5
:101110002F0803199028FF3083120313CD00942861
:1011200083120313AE0A7A28080083120313AA015C
:10113000AB010830831203132B02031DA1280030DA
:101140002A020318B6288A150A1200208A150A12E4
:1011500083120313AC00FF3A0319B0282C08B728F8
:1011600083120313AA0A0319AB0A9928FF30080057
:1011700083120313B3007F08B4007E08B500831206
:1011800003134D080319D928831203133508FE00F1
:101190003408FF0033088A110A1255268A150A12EC
:1011A00083120313B3003308031DD92883120313DA
:1011B000CD01080083120313071587148A150A123C
:1011C00043218A150A1283120313A9015030831296
:1011D000031329020318F5288A110A12FB278A151E
:1011E0000A1283120313A90AE62808004C3083125E
:1011F000031385008A150A12AD218A150A1283127B
:10120000031385018A150A12AD218A150A1280304E
:101210008312031385008A150A12AD218A150A125A
:10122000080083120313A2018316031387174030AB
:1012300087053330990024309800903083120313CF
:101240009800831203132208A300A30A2308A20014
:101250002308031D2129080055308A150A1226206B
:101260008A150A12AA308A150A1226208A150A122D
:101270008A150A1200208A150A128A150A12B2214A
:101280008A150A12080083120313A201A301043075
:10129000831203132302031D4F2900302202031877
:1012A000572983120313A20A0319A30A4729080026
:1012B00018308312031385008A150A12AD218A158E
:1012C0000A12FB308312031385008A150A12AD211E
:1012D0008A150A1208008A150A1200208A150A12B5
:1012E0008A150A1200208A150A128A150A12B221DA
:1012F0008A150A120130080083120313A200831218
:1013000003130C1E7F290C1283120313220883126D
:1013100003139900080083120313A00110308312F5
:1013200003132002031899292008A100210AA00014
:101330008E29080083120313061383160313061362
:101340000800831203138C1EA1298C121A080800AE
:101350006030831603138604080083120313861477
:101360008610080083120313071508008312031365
:101370000711080000340034003400340034003415
:02400E00F4209C
:024010000000AE
:00000001FF
