:020000040000FA
:1000000000008A110A120E2FF200030E8301F10084
:100010000A088A01F000040883120313CD0083123A
:1000200003138B1C6E29050883120313B3008A1572
:100030000A12D9248A110A128A150A12EE248A1188
:100040000A1283120313330803196B293308013A88
:10005000031DA82852308A150A12BB248A110A12DD
:1000600064308A150A12BB248A110A1279308A1563
:100070000A12BB248A110A120A308A150A12BB24FA
:100080008A110A120D308A150A12BB248A110A122B
:100090008A150A12AA248A110A128A150A12D92468
:1000A0008A110A128A150A12EE248A110A12831280
:1000B0000313B401B5018316031385018A150A12CF
:1000C000E2248A110A128312031385008A150A1288
:1000D000AA248A110A128A150A12D9248A110A122C
:1000E0008A150A12EE248A110A12013083120313B0
:1000F0003407B400B600B701B70D3508B7073708A5
:10010000B50037083604031D5E28FF30831603133D
:10011000850043308A150A12BB248A110A126C30FA
:100120008A150A12BB248A110A1272308A150A1221
:10013000BB248A110A120A308A150A12BB248A11BA
:100140000A120D308A150A12BB248A110A126B2971
:1001500083120313B4013308023A0319B40A3408B2
:10016000031DB6283308033A031D6B298A150A12AA
:10017000AA248A110A128312031305088312031397
:10018000EB008A150A12D9248A110A128A150A125A
:10019000EE248A110A128A150A12AA248A110A1256
:1001A00083120313050883120313EC008A150A1245
:1001B000D9248A110A128A150A12EE248A110A1207
:1001C0008A150A12AA248A110A1283120313050837
:1001D00083120313ED008A150A12D9248A110A1218
:1001E0008A150A12EE248A110A12831203136A086E
:1001F000031D102983120313B50105308312031365
:100200003502031810298A110A1287248A110A124A
:1002100083120313B6003608031D1029B50AFD2802
:10022000831203136A08031D28298A150A12AA24B7
:100230008A110A128312031385018A150A12D9241E
:100240008A110A128A150A12EE248A110A126B29DF
:100250008A150A12AA248A110A12FF308312031384
:1002600085008A150A12D9248A110A128A150A12DF
:10027000EE248A110A12FF308316031385008312BD
:100280000313340803195529831203136D08FE0064
:10029000831203136C08FF00831203136B088A1583
:1002A0000A12D3228A110A126B298312031333080C
:1002B000033A031D6B29831203136D08FE0083129A
:1002C00003136C08FF00831203136B088A150A12CC
:1002D00034238A110A12831203138B10831203131F
:1002E0004D0883120313840070088A008301710E85
:1002F0008300F20E720E090083120313BF00C001C7
:10030000FE30C100C201831603138501831203135B
:100310008501793083160313860083120313860147
:100320009830831603138700643083120313870009
:100330008A150A123D248A110A1283120313EA0154
:1003400083120313C30105308312031343020318FE
:10035000B6298A110A1287248A110A1283120313FA
:10036000C4004408031DB629C30AA32942308A15D4
:100370000A12BB248A110A126F308A150A12BB2492
:100380008A110A126F308A150A12BB248A110A12C6
:1003900074308A150A12BB248A110A120A308A158F
:1003A0000A12BB248A110A120D308A150A12BB24C4
:1003B0008A110A1283120313C3010A308312031332
:1003C00043020318EC298A150A12F3248A110A122F
:1003D00083120313C30ADD298316031386178312BE
:1003E0000313C30102308312031343020318162BB5
:1003F000C4014308013A0319C40AC501103083122D
:100400000313450203180E2B4308031D572A450802
:10041000031D572A3F080319362A5C308312031341
:10042000CE00CF01D0010430D10083120313C600E7
:1004300010308312031346020318BE2A46084E3EAC
:10044000C70000300318013EC80047088312031399
:10045000840083138312031348188317EA3083122E
:100460000313800083120313C60A182A831203138E
:10047000C60110308312031346020318BE2A460831
:100480004E3EC70000300318013EC80047088312E3
:100490000313840083138312031348188317EA306D
:1004A00083120313800083120313C60A392A8312AE
:1004B0000313C60110308312031346020318BE2A29
:1004C0004308031D8C2A46084E3EC700003003181F
:1004D000013EC8004208003EC90008300318013E32
:1004E000CA004908FE004A08FF0080308A110A123B
:1004F000AA278A110A1283120313CB00470883121A
:1005000003138400831383120313481883174B08C3
:10051000831203138000B62A8312031346084E3E4B
:10052000C70000300318013EC8004208003EC90061
:1005300009300318013ECA004908FE004A08FF00BE
:1005400080308A110A12AA278A110A128312031311
:10055000CB00470883120313840083138312031311
:10056000481883174B088312031380008312031368
:100570004208C700470AC200C60A5A2A8312031358
:1005800044080319E92A45080F3A031DE92A831292
:1005900003136A08031DE92A003083120313C700FE
:1005A0004E30C600C80142084007C9000130FA00B9
:1005B0004908FB004108FC000030FD004608FE0031
:1005C0004708FF0000308A110A12F7258A110A1223
:1005D000052B003083120313C7004E30C600C8013C
:1005E00042084007C9000030FA004908FB004108F2
:1005F000FC000030FD004608FE004708FF00003008
:100600008A110A12F7258A110A128312031340086D
:10061000C60010304607C000C50AFE298312031326
:100620004108C400440AC100C30AF229831203131B
:100630006A080319462C831203133F080319462C3A
:1006400043308A150A12BB248A110A1261308A15B6
:100650000A12BB248A110A1272308A150A12BB24AC
:100660008A110A1264308A150A12BB248A110A12EE
:100670000A308A150A12BB248A110A120D308A1513
:100680000A12BB248A110A1283120313BF01C0018C
:100690000230C10083120313EB0183120313EC0138
:1006A00083120313ED010430831203134102031874
:1006B000462CC3014108073A0319C30AC40180301C
:1006C00083120313440203183F2C831203136D0893
:1006D000FE00831203136C08FF00831203136B08E0
:1006E0008A150A1200228A110A1283120313C50006
:1006F0004508031D802B83120313EA010030862C6A
:10070000831203136D0883120313C500450A831275
:100710000313ED006D08031D972B831203136B0861
:1007200083120313C500450A83120313EB008312DF
:100730000313C501023083120313450203182B2C47
:10074000C6014008FF3A0319C60AC70110308312D8
:10075000031347020318232CC8011030831203131C
:1007600048020318D72B48084E3EC9000030031832
:10077000013ECA008A150A1292238A110A128312B4
:100780000313CB00490883120313840083138312DD
:1007900003134A1883174B08831203138000831234
:1007A00003134208C900490AC200C80AAD2B8312CC
:1007B000031343080319FE2B46080319FE2B4708B1
:1007C0000F3A031DFE2B0030C9004E30C800CA018D
:1007D00042083F07CB000130FA004108FB00400807
:1007E000FC004B08FD004808FE004908FF000030EF
:1007F0008A110A12F7258A110A121A2C0030831264
:100800000313C9004E30C800CA0142083F07CB009D
:100810000030FA004108FB004008FC004B08FD00D6
:100820004808FE004908FF0000308A110A12F72527
:100830008A110A12831203133F08C80010304807B8
:10084000BF00C70AA62B831203134008C600460A3E
:10085000C000C50A9A2B8A150A1299248A110A1215
:1008600083120313C5004508031D3B2C8312031399
:10087000EA010030862C83120313C40A5F2B831213
:1008800003134108C300430AC100532BFF308316F2
:100890000313850086148312031386138316031330
:1008A0008613831203130615873083160313810002
:1008B000D030831203138B00831603138C018D0138
:1008C000861744308A150A12BB248A110A126F3027
:1008D0008A150A12BB248A110A126E308A150A126E
:1008E000BB248A110A1265308A150A12BB248A11A8
:1008F0000A120A308A150A12BB248A110A120D3014
:100900008A150A12BB248A110A12013008008312C8
:1009100003130715871007108A150A12F8248A1185
:100920000A128A150A1221248A110A128A150A1239
:1009300070248A110A128A150A12FC248A110A12DA
:1009400040308A150A12B8238A110A1200308A151B
:100950000A12B8238A110A1200308A150A12B82323
:100960008A110A1200308A150A12B8238A110A1253
:1009700000308A150A12B8238A110A1295308A1596
:100980000A12B8238A110A128A150A12DE238A1162
:100990000A1283120313A900FF3A031DD12C003061
:1009A000F62D8A150A12F8248A110A1283120313EB
:1009B0002908013A0319DE2C0030F62D8A150A1297
:1009C00070248A110A128A150A1221248A110A1225
:1009D0008A150A12FC248A110A1248308A150A1252
:1009E000B8238A110A1200308A150A12B8238A1114
:1009F0000A1200308A150A12B8238A110A1201302D
:100A00008A150A12B8238A110A12AA308A150A1204
:100A1000B8238A110A1287308A150A12B8238A115C
:100A20000A128A150A12DE238A110A12831203138C
:100A3000A900FF3A031D1E2D0030F62D8A150A125B
:100A4000F8248A110A12831203132908013A0319A0
:100A50002B2D0030F62D8A150A12FC248A110A1259
:100A60008A150A1292238A110A128A150A129223EF
:100A70008A110A128A150A1292238A110A128A15F9
:100A80000A1292238A110A128A150A12F8248A116C
:100A90000A128A150A1221248A110A128A150A12C8
:100AA00070248A110A128A150A12FC248A110A1269
:100AB00077308A150A12B8238A110A1200308A1573
:100AC0000A12B8238A110A1200308A150A12B823B2
:100AD0008A110A1200308A150A12B8238A110A12E2
:100AE00000308A150A12B8238A110A1201308A15B9
:100AF0000A12B8238A110A128A150A12DE238A11F1
:100B00000A1283120313A900FF3A031D892D003036
:100B1000F62D8A150A12F8248A110A128312031379
:100B20002908013A0319962D0030F62D8A150A126C
:100B300021248A110A128A150A1270248A110A12B3
:100B40008A150A12FC248A110A1269308A150A12BF
:100B5000B8238A110A1240308A150A12B8238A1162
:100B60000A1200308A150A12B8238A110A120030BC
:100B70008A150A12B8238A110A1200308A150A123D
:100B8000B8238A110A1201308A150A12B8238A1171
:100B90000A128A150A12DE238A110A12831203131B
:100BA000A900FF3A031DD62D0030F62D8A150A1232
:100BB000F8248A110A128312031329080319E62D57
:100BC0002908013A0319E62D0030F62D8A150A127C
:100BD00070248A110A12831203132908013A031997
:100BE000492D013083120313EA00013008008312FB
:100BF0000313A3007F08A5007E08A6007D08A700B8
:100C00007C08A8007B08A9007A08AA00AB01B801FB
:100C10000130B900BA010330BB0083120313390855
:100C2000013A031D0D2F83120313060883120313C9
:100C3000BC003830BC05BC19262E83120313850175
:100C40008A150A12F3248A110A120D2E8312031335
:100C50002B08031DDA2E3C08383A031D4A2E3A08A9
:100C6000BD00013CBA00013A031D402EA930831299
:100C7000031385008A150A12F3248A110A120D2E15
:100C80008F308312031385008A150A12F3248A1108
:100C90000A120D2E831203133C08283A031DA52EB9
:100CA0003A08013A031D6E2E38082607BD002508B4
:100CB0000318013EBE003D08FE003E08FF00230869
:100CC0008A110A12AA278A110A12831203138500B5
:100CD0008A150A12F3248A110A120D2E83120313A5
:100CE0003B08BD003D03BB00023A031D822E3808BD
:100CF00029078312031385008A150A12F3248A1127
:100D00000A120D2E831203133B08013A031D922E83
:100D100028088312031385008A150A12F3248A1106
:100D20000A120D2E831203133B08031D0D2E2708F4
:100D30008312031385008A150A12F3248A110A12FA
:100D4000033083120313BB000D2E831203133C08E0
:100D5000183A031DD12E3A08013A031DB52E8A1107
:100D60000A12DE278A110A120D2EFF308316031392
:100D700085008A150A12F3248A110A1283160313B6
:100D80008501831203133808BD003D0AB800103AEC
:100D9000031D0D2E2A08AB002A08031D0D2EB901D4
:100DA0000D2E8312031385018A150A12F3248A116A
:100DB0000A120D2E831203132B0803190D2E3C0863
:100DC000383A031DED2ECB308312031385008A15AC
:100DD0000A12F3248A110A12012F831203133C080A
:100DE000083A031DFC2E8312031385018A150A128B
:100DF000F3248A110A12012F8A110A12DE278A119E
:100E00000A12831203133808BC003C0AB8000630EB
:100E10003802031C0D2EB9010D2E08000130FE0012
:100E20000C30FF0080308A110A12BD278A110A1285
:100E300083120313DF007F08DE000330E0000C3074
:100E4000E100831203135E08E2005F08E300FF3055
:100E5000DE07031CDF03630862040319A62F0430B6
:100E60006007E200E301E30D6108E3076208FE00AA
:100E70006308FF0080308A110A12BD278A110A1206
:100E800083120313E5007F08E4006008FE00610898
:100E9000FF0080308A110A12BD278A110A128312BC
:100EA0000313E700E3007F08E200E600023060077A
:100EB000E200E301E30D6108E3076208FE00630856
:100EC000FF0080308A110A12BD278A110A1283128C
:100ED0000313E300E9007F08E800E2008312031334
:100EE0006408E8006508E900FF30E407031CE50337
:100EF0006908680403199F2F6608FE006708FF0051
:100F000080308A110A12AA278A110A128312031347
:100F1000E80062088312031384008313831203130F
:100F20006318831768088312031380008312031366
:100F3000E60A0319E70AE20A0319E30A6E2F0630EC
:100F400083120313E0070318E10A212F8A150A12FE
:100F5000852C0800003A0319B12F803A0319B82FE5
:100F600000347E08840083137F188317000808006C
:100F70007F088A007E0882000800003A0319C52F06
:100F8000803A0319CF2FFF0100347E0884008313B9
:100F90007F1883170008FF00840A000808008A11E0
:100FA0000A12B827FD00FE0FFF03FF0A8A110A127A
:100FB000B827FC007D08FF007C08080045308A1532
:100FC0000A12BB248A110A1272308A150A12BB2433
:100FD0008A110A1272308A150A12BB248A110A1267
:100FE0000A308A150A12BB248A110A120D308A159A
:100FF0000A12BB248A110A12FC2F080000340034A4
:10100000EA34EA34EA34EA34EA34EA34EA34EA34F0
:10101000EA34EA34EA34EA34EA34EA34EA34EA34E0
:10102000803401344034A93400348F340334003424
:101030000134A93402348F340C34003401348F3439
:101040000E3400340134583420348534FE34AE3448
:10105000E134FF34EC34E034FF34F034F834EE346F
:10106000E134FF34BD3400340234C934F034D034B8
:101070000534EE34E134FF348034E934C9342934A2
:10108000D0340534EE34B134FE348034DD34C93428
:101090005A34D0340B34AD34B134FE34183469349E
:1010A00020348D34B134FE348034CE34C9346634C7
:1010B000D0340534CE34B134FE348034C534C93430
:1010C0007634F0341D34A2340F34DD345B34FF3415
:1010D000F0340334CA34D034F834DA342034B03441
:1010E000FE34B53400340A340A340A340A349534F0
:1010F0000034683415340034953400348034A4341A
:1011000020340034003480349F34A0340434A234BA
:101110000034A5340034DA349C341334FF342034E2
:10112000B034FE34EC348A34FE34D0340334CE345C
:101130001334FF34FA342034B334FE34EE348A34BA
:10114000FE348A3429343F34D034E334A2340034BA
:10115000C834C834AD348A34FE34D034DA34603420
:10116000A23400346034483448342934F03418341C
:101170006A346A346A346A342034C934FE34E83458
:10118000683429340F342034C934FE34E8346834E8
:1011900060344834DA345A3448348A340A348D346A
:1011A0001734FF3498340A340A340A348D3418342E
:1011B000FF3468340A340A34AA34A0340434BD3409
:1011C0001B34FF342034F634FE3420340134FF3431
:1011D0002034F634FE3420340134FF34E8348834CB
:1011E000D034ED347A34FA346834603448342034FE
:1011F0001234FF34EE341734FF3468340A340A34BE
:101200006034483420341234FF34CE341734FF3481
:10121000EE341834FF34EE341834FF3468340A34B2
:101220000A346034493400342934C0348F340034F3
:10123000003402346034EA34AA34E0340034223416
:10124000223420340034E234E834E0340034E23430
:10125000E234E0340034AA34E23420340034E83498
:10126000E234E0340034E834EA34E0340034E23488
:10127000223420340034EA34EA34E0340034EA34EE
:10128000E234E0340034EA34EA34A0340034883400
:10129000EA34E0340034E8348834E0340034223472
:1012A000EA34E0340034E834E834E0340034E8343C
:1012B000E83480340034453416341E342634253462
:1012C0002E3436343D343E3446341C3432342134EA
:1012D000233424342B344834AF3401340034013403
:1012E0002934803418346E34E234FF3418346D34C9
:1012F000E234FF348D34E234FF34EE34E434FF342E
:10130000AD34E434FF34C9340934D0341234AD344C
:10131000E234FF34DA34AE34E034FF349D34003448
:1013200002348A341A348D34E034FF34FA346834A9
:101330004034C9340B34F0340234683440349C34C3
:10134000E434FF3468344034003400340034003472
:1013500000340034003400340034003400340034ED
:1013600000340034003400340034003400340034DD
:1013700000340034003400340034003400340034CD
:1013800000340034003400340034003400340034BD
:1013900000340034003400340034003400340034AD
:1013A000003400340034003400340034003400349D
:1013B000003400340034003400340034003400348D
:1013C00000340034003400341234FE341234FE345D
:1013D0001234FE341234FE34003400341234FE343D
:1013E00000340034003400341234FE34003400344D
:1013F0001234FE341234FE340034FE346B34FF34C5
:1014000083120313A9007F08AA007E08AB008A1587
:101410000A12F8248A150A128A150A1221248A153A
:101420000A128A150A1270248A150A128A150A12DB
:10143000FC248A150A1251308A150A12B8238A151B
:101440000A128312031329088A150A12B8238A156F
:101450000A12831203132A088A150A12B8238A155E
:101460000A12831203132B102B088A150A12B823B1
:101470008A150A1200308A150A12B8238A150A1230
:1014800001308A150A12B8238A150A128A150A121F
:10149000DE238A150A1283120313A900FF3A031DE3
:1014A000532A0030702A83120313290803195A2A79
:1014B0000030702A8A150A12DE238A150A12831256
:1014C0000313A900FF3A031D672A0030702A831214
:1014D00003132908FE3A03196F2A0030702A0130DD
:1014E000080083120313A4007F08AE007E08AF003B
:1014F0008A150A12F8248A150A128A150A1221245A
:101500008A150A128A150A1270248A150A128A1577
:101510000A12FC248A150A1258308A150A12B823B6
:101520008A150A128312031324088A150A12B82393
:101530008A150A12831203132E088A150A12B82379
:101540008A150A12831203132F102F088A150A1204
:10155000B8238A150A1200308A150A12B8238A1590
:101560000A1201308A150A12B8238A150A128A153E
:101570000A12DE238A150A1283120313A400FF3A0B
:10158000031DC42A0030D22A83120313240803192E
:10159000CB2A0030D22AFE308A150A12B8238A15C7
:1015A0000A120130080083120313AC007F08AD005B
:1015B0007E08FE002D08FF002C088A150A12002262
:1015C0008A150A1283120313AC002C08031DEB2AA0
:1015D00083120313EA018316031385018312031395
:1015E000AC01AD010230831203132D02031DFA2A50
:1015F00000302C020318192B8A150A1292238A151F
:101600000A128312031385008A150A12AA248A1566
:101610000A128A150A12D9248A150A128A150A1280
:10162000EE248A150A1283120313AC0A0319AD0AB9
:10163000F22AFF308316031385008A150A129924B3
:101640008A150A1283120313AC002C08031D2B2BDE
:1016500083120313EA01831203136A08031D322B5A
:101660000030332B0130080083120313B0007F08D1
:10167000B1007E08B200FE003108FF0030088A1574
:101680000A1271228A150A1283120313B00030085D
:10169000031D4D2B83120313EA0183120313B001C0
:1016A000B1010230831203133102031D592B0030A4
:1016B000300203187B2B83120313050883120313D4
:1016C000B2008A150A12B8238A150A128A150A125C
:1016D000AA248A150A128A150A12D9248A150A120E
:1016E0008A150A12EE248A150A1283120313B00A0D
:1016F0000319B10A512B8A150A1258248A150A12A5
:1017000083120313B0003008031D892B83120313C7
:10171000EA01831203136A08031D902B0030912BFA
:101720000130080083120313A201A30108308312C1
:10173000031323020318B42B2208A5000310250D60
:10174000A20083120313871DAB2B831203132208FD
:10175000A500250AA2008A150A12E9248A150A1290
:1017600083120313A30A962B831203132208080083
:1017700083120313A200A301083083120313230270
:101780000318DD2B80302202031CCA2B83120313A3
:101790008714CD2B8312031387108312031322089F
:1017A000A5000310250DA2008A150A12E9248A1546
:1017B0000A1283120313A30ABC2B0800831203131B
:1017C000A601A7010830831203132702031DEA2B89
:1017D000003026020318FF2B8A150A1292238A155D
:1017E0000A1283120313A800FF3A0319F92B2808E1
:1017F000002C83120313A60A0319A70AE22BFF3059
:10180000080005340034FE3407346A3400340134EF
:101810000034FF3407346B340034013400340034B6
:101820000D346C3400340134003401340D346D3423
:1018300000340134003402340D346E340034013489
:10184000003483120313071587148A150A127024B3
:101850008A150A1283120313A50150308312031351
:10186000250203183C2C8A150A12E9248A150A124B
:1018700083120313A50A2D2C080083120313A2015F
:1018800083160313871740308705193099002430D9
:1018900098009030831203139800831203132208D8
:1018A000A300A30A2308A2002308031D4D2C08004F
:1018B00055308A150A12B8238A150A12AA308A15D9
:1018C0000A12B8238A150A128A150A1292238A1557
:1018D0000A128A150A12F8248A150A120130080021
:1018E00083120313A201A301023083120313230204
:1018F000031D7C2C003022020318842C8312031356
:10190000A20A0319A30A742C080001308A110A12D2
:101910007C218A150A1283120313CC004C08031D84
:10192000972C00308A110A127C218A150A12972CF2
:1019300008008A150A1292238A150A128A150A12B9
:1019400092238A150A128A150A12F8248A150A1295
:101950000130080083120313A40183120313061C31
:10196000B42C83120313A40A831203132408013A2C
:101970000319AA2C080083120313A2008312031375
:101980000C1EBE2C0C1283120313220883120313A5
:101990009900080083120313A0011030831203136F
:1019A00020020318D82C2008A100210AA000CD2C69
:1019B000080083120313061FD92C06138316031382
:1019C00006130800831203138C1EE22C8C121A08D3
:1019D00008008312031307140710080060308316F1
:1019E000031386040800831203138614861008006C
:1019F000831203130715080083120313071108004D
:061A000000340034003444
:02400E00F42C90
:02401000FF3E71
:00000001FF
