:020000040000FA
:1000000000008A110A12642FF200030E8301F1002E
:100010000A088A01F000040883120313C200831245
:1000200003138B1C672983120313061F13288A15D9
:100030000A1258228A110A128A150A12D0208A112D
:100040000A1283120313B500350803192F28350847
:10005000023A03192F283508033A031DF2288A159E
:100060000A1242228A110A12831203133508031D51
:10007000432883120313CF0183120313D001831289
:100080000313D1017428831203133508023A0319AC
:100090004D283508033A031D74288A150A12D0200A
:1000A0008A110A1283120313CF008A150A12422200
:1000B0008A110A128A150A12D0208A110A12831292
:1000C0000313D0008A150A1242228A110A128A15D5
:1000D0000A12D0208A110A1283120313D1008A1542
:1000E0000A1242228A110A12831203135208031DB4
:1000F000842800308A150A1299208A110A120330C6
:1001000083120313B500F228FF308A150A129920D2
:100110008A110A12831203133508031DBD28B60184
:10012000831203135108FE00831203135008FF00CB
:10013000831203134F088A110A12C3268A110A1266
:1001400083120313510883120313B70002303707D9
:1001500083120313D100831203133608B700370A42
:10016000B6003608031D90283508B700370AB500D9
:1001700002303502031C9028EA2883120313350845
:10018000023A031DD428831203135108FE00831280
:1001900003135008FF00831203134F088A110A1239
:1001A000C3268A110A12EA28831203133508033A78
:1001B000031DEA28831203135108FE008312031360
:1001C0005008FF00831203134F088A150A120020FB
:1001D0008A110A128A150A1242228A110A128312FD
:1001E0000313B501831203133508013A031D412996
:1001F00052308A150A1233228A110A1264308A1583
:100200000A1233228A110A1279308A150A1233220D
:100210008A110A120A308A150A1233228A110A1226
:100220000D308A150A1233228A110A128A150A120F
:1002300042228A110A1283120313B501B6018A15EC
:100240000A125F228A110A1283120313B7008A1559
:100250000A1299208A110A120130831203133507FA
:10026000B500B700B801B80D3608B8073808B600B1
:1002700038083704031D1F298A150A1242228A11E1
:100280000A1243308A150A1233228A110A126C307C
:100290008A150A1233228A110A1272308A150A123A
:1002A00033228A110A120A308A150A1233228A115D
:1002B0000A120D308A150A1233228A110A128A157F
:1002C0000A126B228A110A12831203138B108312F3
:1002D0000313420883120313840070088A00830109
:1002E000710E8300F20E720E090083120313B9011E
:1002F000BA010130BB00BC01BD01BE01831603136E
:1003000085018312031385013D3083160313860094
:10031000831203138601933083160313870064301E
:100320008312031387008A150A1203228A110A1204
:1003300042308A150A1233228A110A126F308A1546
:100340000A1233228A110A126F308A150A123322D6
:100350008A110A1274308A150A1233228A110A127B
:100360000A308A150A1233228A110A120D308A15B0
:100370000A1233228A110A1283120313BF010A30B0
:10038000831203133F020318CE298A150A12702222
:100390008A110A1283120313BF0ABF29831603139B
:1003A0008617831203133B08013A031DD82A8312D0
:1003B0000313060883120313BF003C30BF05BF19A7
:1003C000EA298312031385018A150A1270228A1101
:1003D0000A12D129831203133908031D9E2A3F08EC
:1003E0003C3A031D0E2A3C08C000013CBC00013A07
:1003F000031D042AA9308312031385008A150A12EB
:1004000070228A110A12D1298D30831203138500BC
:100410008A150A1270228A110A12D1298312031333
:100420003F082C3A031D692A3C08013A031D4C2A57
:100430003E08031D302A3A08C33EC00004300318AA
:10044000013EC1004008FE004108FF0080308A15CF
:100450000A1204218A110A12831203138500462A04
:10046000831203133A08C33EC00005300318013E4F
:10047000C1004008FE004108FF0080308A150A12C2
:1004800004218A110A128312031385008A150A12A5
:1004900070228A110A12D129831203133D08C00069
:1004A000013CBD00013A031D5F2A3A088312031381
:1004B00085008A150A1270228A110A12D129FF308A
:1004C0008312031385008A150A1270228A110A12F8
:1004D000D129831203133F08183A031D982A3C08B8
:1004E000013A031D792A8A150A12A7218A110A12D4
:1004F000D129FF308316031385008A150A12702252
:100500008A110A12831603138501831203133A0812
:10051000C000400ABA003A08031DD1293E08C000B5
:10052000400ABE00023A031DD1290130B900D12989
:100530008A150A12A7218A110A12D12983120313DC
:100540003908013A031DD22A3F083C3A031DB22A5A
:10055000CB308312031385008A150A1270228A1188
:100560000A12C62A831203133F080C3A031DC12A3C
:100570008312031385018A150A1270228A110A1246
:10058000C62A8A150A12A7218A110A128312031396
:100590003A08BF003F0ABA0004303A02031CD129CE
:1005A000BB01D1298A150A12A7218A110A12D12961
:1005B000FF308316031385008614831203138613FA
:1005C000831603138613061749308A150A1233223D
:1005D0008A110A126E308A150A1233228A110A12FF
:1005E00069308A150A1233228A110A1274308A1568
:1005F0000A1233228A110A120A308A150A12332289
:100600008A110A120D308A150A1233228A110A122F
:1006100083120313D20183120313B901053083122D
:10062000031339020318212B8A110A1253238A114A
:100630000A1283120313BA003A08031D212BB90AC8
:100640000E2B8730831603138100D03083120313DF
:100650008B00831603138C018D01861744308A1595
:100660000A1233228A110A126F308A150A123322B3
:100670008A110A126E308A150A1233228A110A125E
:1006800065308A150A1233228A110A120A308A1535
:100690000A1233228A110A120D308A150A123322E5
:1006A0008A110A1208008312031307158712871193
:1006B0008A150A1275228A110A128A150A12E7216E
:1006C0008A110A128A150A121E228A110A128A1522
:1006D0000A1279228A110A1240308A150A125E2102
:1006E0008A110A1200308A150A125E218A110A1232
:1006F00000308A150A125E218A110A1200308A150A
:100700000A125E218A110A1200308A150A125E212D
:100710008A110A1295308A150A125E218A110A126C
:100720008A150A1284218A110A1283120313AE0059
:10073000FF3A031D9D2B0030C22C8A150A12752228
:100740008A110A12831203132E08013A0319AA2BE5
:100750000030C22C8A150A121E228A110A128A152A
:100760000A12E7218A110A128A150A1279228A11BD
:100770000A1248308A150A125E218A110A120030C4
:100780008A150A125E218A110A1200308A150A128D
:100790005E218A110A1201308A150A125E218A111D
:1007A0000A12AA308A150A125E218A110A128730AB
:1007B0008A150A125E218A110A128A150A128421E8
:1007C0008A110A1283120313AE00FF3A031DEA2BAB
:1007D0000030C22C8A150A1275228A110A1283125D
:1007E00003132E08013A0319F72B0030C22C8A1587
:1007F0000A1279228A110A128A150A1238218A11DC
:100800000A128A150A1238218A110A128A150A1246
:1008100038218A110A128A150A1238218A110A12FD
:100820008A150A1275228A110A128A150A12E721FC
:100830008A110A128A150A121E228A110A128A15B0
:100840000A1279228A110A1277308A150A125E2159
:100850008A110A1200308A150A125E218A110A12C0
:1008600000308A150A125E218A110A1200308A1598
:100870000A125E218A110A1200308A150A125E21BC
:100880008A110A1201308A150A125E218A110A128F
:100890008A150A1284218A110A1283120313AE00E8
:1008A000FF3A031D552C0030C22C8A150A127522FE
:1008B0008A110A12831203132E08013A0319622CBB
:1008C0000030C22C8A150A12E7218A110A128A15F1
:1008D0000A121E228A110A128A150A1279228A1114
:1008E0000A1269308A150A125E218A110A124030F2
:1008F0008A150A125E218A110A1200308A150A121C
:100900005E218A110A1200308A150A125E218A11AC
:100910000A1200308A150A125E218A110A12013069
:100920008A150A125E218A110A128A150A12842176
:100930008A110A1283120313AE00FF3A031DA22C80
:100940000030C22C8A150A1275228A110A128312EB
:1009500003132E080319B22C2E08013A0319B22CE6
:100960000030C22C8A150A121E228A110A12831222
:1009700003132E08013A0319152C013083120313B7
:10098000D200013008000034003400340034003458
:1009900000340034003400340034003400340034B7
:1009A00000340034003400340034003400340034A7
:1009B0000034003400340034003400340034003497
:1009C0000034003400340034003400340034003487
:100D800000340034003483120313AF007F08B00036
:100D90007E08B1008A150A1275228A110A128A1574
:100DA0000A12E7218A110A128A150A121E228A11D2
:100DB0000A128A150A1279228A110A1251308A15EA
:100DC0000A125E218A110A12831203132F088A1550
:100DD0000A125E218A110A128312031330088A153F
:100DE0000A125E218A110A1283120313311031088C
:100DF0008A150A125E218A110A1200308A150A1217
:100E00005E218A110A1201308A150A125E218A11A6
:100E10000A128A150A1284218A110A1283120313F4
:100E2000AF00FF3A031D162F0030632F8312031308
:100E30002F0803191D2F0030632F8A150A128421F1
:100E40008A110A1283120313AF00FF3A031D2A2FDF
:100E50000030632F831203132F08FE3A0319322F39
:100E60000030632F83120313AF01B00102308312ED
:100E700003133002031D3E2F00302F020318532F9F
:100E80008A150A1238218A110A1283120313B1003B
:100E90008A150A1299208A110A1283120313AF0AC3
:100EA0000319B00A362F8A150A1238218A110A123C
:100EB0008A150A1238218A110A128A150A12752215
:100EC0008A110A1201300800C730FE000930FF0005
:100ED00080308A150A1217218A110A12831203130D
:100EE000C4007F08C300C930C5000930C6008312A2
:100EF00003134308C7004408C800FF30C307031C9E
:100F0000C403480847040319FC2F04304507C700F1
:100F1000C801C80D4608C8074708FE004808FF007A
:100F200080308A150A1217218A110A1283120313BC
:100F3000CA007F08C9004508FE004608FF0080304F
:100F40008A150A1217218A110A1283120313CC0080
:100F5000C8007F08C700CB0002304507C700C801A2
:100F6000C80D4608C8074708FE004808FF00803043
:100F70008A150A1217218A110A1283120313C80054
:100F8000CE007F08CD00C700831203134908CD00AF
:100F90004A08CE00FF30C907031CCA034E084D049F
:100FA0000319F52F4B08FE004C08FF0080308A150E
:100FB0000A1204218A110A1283120313CD00470872
:100FC00083120313840083138312031348188317B7
:100FD0004D0883120313800083120313CB0A0319F5
:100FE000CC0AC70A0319C80AC42F06308312031398
:100FF000C5070318C60A772F8A150A12512A080056
:1010000083120313B2007F08B3007E08B4008A1570
:101010000A1275228A150A128A150A12E7218A1500
:101020000A128A150A121E228A150A128A150A1233
:1010300079228A150A1258308A150A125E218A15F9
:101040000A128312031332088A150A125E218A15C6
:101050000A128312031333088A150A125E218A15B5
:101060000A1283120313341034088A150A125E21FF
:101070008A150A1200308A150A125E218A150A1290
:1010800001308A150A125E218A150A128A150A127F
:1010900084218A150A1283120313B200FF3A031D3A
:1010A00053280030982883120313320803195A2852
:1010B00000309828FE308A150A125E218A150A121D
:1010C00083120313B201B3010230831203133302FC
:1010D000031D6C2800303202031881288A150A1279
:1010E000D0208A150A1283120313B4008A150A123B
:1010F0005E218A150A1283120313B20A0319B30A76
:10110000642855308A150A125E218A150A12AA30FF
:101110008A150A125E218A150A128A150A123821C6
:101120008A150A128A150A1275228A150A120130C6
:10113000080083120313A7008312031307148714F4
:10114000FC3083160313870583120313A8010830AC
:101150008312031328020318CB28831203130710EA
:101160008312031327087F390319BA288312031344
:101170008714BD28831203138710831203132708D3
:10118000A9000310290DA70083120313071483126B
:101190000313A80AA7280330831603138704080043
:1011A00083120313A401831203130714831603137A
:1011B000071083120313A5010830831203132502BD
:1011C0000318FD2883120313071083120313240846
:1011D000A6000310260DA40083120313871CF62813
:1011E000831203132408A600260AA4008312031303
:1011F000071483120313A50ADC28831603130714AC
:101200008312031324080800003A03190B29803ABB
:101210000319122900347E08840083137F18831772
:10122000000808007F088A007E0882000800003A53
:1012300003191F29803A03192929FF0100347E0868
:10124000840083137F1883170008FF00840A0008B6
:1012500008008A150A121221FD00FE0FFF03FF0A83
:101260008A150A121221FC007D08FF007C08080084
:1012700083120313A201A301083083120313230274
:1012800003185A292208AA0003102A0DA20083126B
:101290000313071E5129831203132208AA002A0AE6
:1012A000A2008A150A1266228A150A1283120313F3
:1012B000A30A3C2983120313220808008312031394
:1012C000A200A30108308312031323020318832909
:1012D00080302202031C702983120313871673299E
:1012E000831203138712831203132208AA00031028
:1012F0002A0DA2008A150A1266228A150A12831282
:101300000313A30A6229080083120313AB01AC0183
:101310000830831203132C02031D902900302B0286
:101320000318A5298A150A1238218A150A12831270
:101330000313AD00FF3A03199F292D08A629831234
:101340000313AB0A0319AC0A8829FF3008004530A3
:101350008A150A1233228A150A1272308A150A1265
:1013600033228A150A1272308A150A1233228A151C
:101370000A120A308A150A1233228A150A120D300F
:101380008A150A1233228A150A12C5290800053463
:1013900000347D340A344F340034013400347E3458
:1013A0000A3450340034013400347F340A34513468
:1013B00000340134003480340A34523400340134AF
:1013C000003481340A34533400340134003483123D
:1013D0000313071587168A150A121E228A150A1288
:1013E00083120313AA015030831203132A02031835
:1013F000022A8A150A1266228A150A128312031318
:10140000AA0AF329080083120313A2018316031307
:1014100087174030870519309900243098009030A4
:10142000831203139800831203132208A300A30A54
:101430002308A2002308031D132A080083120313A4
:10144000A201A3010230831203132302031D2A2ADF
:10145000003022020318322A83120313A20A03194E
:10146000A30A222A080083120313A2008312031383
:101470000C1E362A0C128312031322088312031344
:101480009900080083120313A00110308312031384
:1014900020020318502A2008A100210AA000452A92
:1014A00008008A110A1275218A150A12562A0800A4
:1014B0008312031306138316031306130800831203
:1014C00003138C1E5F2A8C121A0808008312031360
:1014D00087158711080060308316031386040800FF
:1014E0008312031386148610080083120313071552
:1014F000080083120313071108000034003400347D
:04150000003400347F
:02400E00F42C90
:02401000FF3E71
:00000001FF
